{
  "_format": "hh-sol-artifact-1",
  "contractName": "CNCMaintenance",
  "sourceName": "contracts/CNCMaintenance.sol",
  "abi": [
    {
      "anonymous": false,
      "inputs": [
        {
          "indexed": false,
          "internalType": "uint256",
          "name": "id",
          "type": "uint256"
        },
        {
          "indexed": false,
          "internalType": "string",
          "name": "machineId",
          "type": "string"
        },
        {
          "indexed": false,
          "internalType": "bool",
          "name": "maintenanceNeeded",
          "type": "bool"
        },
        {
          "indexed": false,
          "internalType": "uint256",
          "name": "timestamp",
          "type": "uint256"
        }
      ],
      "name": "PredictionLogged",
      "type": "event"
    },
    {
      "inputs": [
        {
          "internalType": "uint256",
          "name": "_id",
          "type": "uint256"
        }
      ],
      "name": "getPredictionById",
      "outputs": [
        {
          "internalType": "string",
          "name": "",
          "type": "string"
        },
        {
          "internalType": "bool",
          "name": "",
          "type": "bool"
        },
        {
          "internalType": "uint256",
          "name": "",
          "type": "uint256"
        }
      ],
      "stateMutability": "view",
      "type": "function"
    },
    {
      "inputs": [],
      "name": "getPredictionCount",
      "outputs": [
        {
          "internalType": "uint256",
          "name": "",
          "type": "uint256"
        }
      ],
      "stateMutability": "view",
      "type": "function"
    },
    {
      "inputs": [
        {
          "internalType": "string",
          "name": "_machineId",
          "type": "string"
        },
        {
          "internalType": "bool",
          "name": "_maintenanceNeeded",
          "type": "bool"
        }
      ],
      "name": "logPrediction",
      "outputs": [],
      "stateMutability": "nonpayable",
      "type": "function"
    },
    {
      "inputs": [
        {
          "internalType": "uint256",
          "name": "",
          "type": "uint256"
        }
      ],
      "name": "predictions",
      "outputs": [
        {
          "internalType": "uint256",
          "name": "id",
          "type": "uint256"
        },
        {
          "internalType": "string",
          "name": "machineId",
          "type": "string"
        },
        {
          "internalType": "bool",
          "name": "maintenanceNeeded",
          "type": "bool"
        },
        {
          "internalType": "uint256",
          "name": "timestamp",
          "type": "uint256"
        }
      ],
      "stateMutability": "view",
      "type": "function"
    }
  ],
  "bytecode": "0x6080604052348015600f57600080fd5b50610b518061001f6000396000f3fe608060405234801561001057600080fd5b506004361061004b5760003560e01c80624fbbb0146100505780630166809614610083578063a18f44ec146100a1578063eaa1c8ca146100bd575b600080fd5b61006a60048036038101906100659190610459565b6100ef565b60405161007a9493929190610540565b60405180910390f35b61008b6101c4565b604051610098919061058c565b60405180910390f35b6100bb60048036038101906100b69190610708565b6101d0565b005b6100d760048036038101906100d29190610459565b6102b5565b6040516100e693929190610764565b60405180910390f35b600081815481106100ff57600080fd5b9060005260206000209060040201600091509050806000015490806001018054610128906107d1565b80601f0160208091040260200160405190810160405280929190818152602001828054610154906107d1565b80156101a15780601f10610176576101008083540402835291602001916101a1565b820191906000526020600020905b81548152906001019060200180831161018457829003601f168201915b5050505050908060020160009054906101000a900460ff16908060030154905084565b60008080549050905090565b60008080549050905060006040518060800160405280838152602001858152602001841515815260200142815250908060018154018082558091505060019003906000526020600020906004020160009091909190915060008201518160000155602082015181600101908161024691906109ae565b5060408201518160020160006101000a81548160ff0219169083151502179055506060820151816003015550507f39b7a5b9c5489eba420880daba847f75939072d1c6d60a015bb7a8e192d31497818484426040516102a89493929190610540565b60405180910390a1505050565b60606000806000805490508410610301576040517f08c379a00000000000000000000000000000000000000000000000000000000081526004016102f890610acc565b60405180910390fd5b600080858154811061031657610315610aec565b5b906000526020600020906004020160405180608001604052908160008201548152602001600182018054610349906107d1565b80601f0160208091040260200160405190810160405280929190818152602001828054610375906107d1565b80156103c25780601f10610397576101008083540402835291602001916103c2565b820191906000526020600020905b8154815290600101906020018083116103a557829003601f168201915b505050505081526020016002820160009054906101000a900460ff161515151581526020016003820154815250509050806020015181604001518260600151935093509350509193909250565b6000604051905090565b600080fd5b600080fd5b6000819050919050565b61043681610423565b811461044157600080fd5b50565b6000813590506104538161042d565b92915050565b60006020828403121561046f5761046e610419565b5b600061047d84828501610444565b91505092915050565b61048f81610423565b82525050565b600081519050919050565b600082825260208201905092915050565b60005b838110156104cf5780820151818401526020810190506104b4565b60008484015250505050565b6000601f19601f8301169050919050565b60006104f782610495565b61050181856104a0565b93506105118185602086016104b1565b61051a816104db565b840191505092915050565b60008115159050919050565b61053a81610525565b82525050565b60006080820190506105556000830187610486565b818103602083015261056781866104ec565b90506105766040830185610531565b6105836060830184610486565b95945050505050565b60006020820190506105a16000830184610486565b92915050565b600080fd5b600080fd5b7f4e487b7100000000000000000000000000000000000000000000000000000000600052604160045260246000fd5b6105e9826104db565b810181811067ffffffffffffffff82111715610608576106076105b1565b5b80604052505050565b600061061b61040f565b905061062782826105e0565b919050565b600067ffffffffffffffff821115610647576106466105b1565b5b610650826104db565b9050602081019050919050565b82818337600083830152505050565b600061067f61067a8461062c565b610611565b90508281526020810184848401111561069b5761069a6105ac565b5b6106a684828561065d565b509392505050565b600082601f8301126106c3576106c26105a7565b5b81356106d384826020860161066c565b91505092915050565b6106e581610525565b81146106f057600080fd5b50565b600081359050610702816106dc565b92915050565b6000806040838503121561071f5761071e610419565b5b600083013567ffffffffffffffff81111561073d5761073c61041e565b5b610749858286016106ae565b925050602061075a858286016106f3565b9150509250929050565b6000606082019050818103600083015261077e81866104ec565b905061078d6020830185610531565b61079a6040830184610486565b949350505050565b7f4e487b7100000000000000000000000000000000000000000000000000000000600052602260045260246000fd5b600060028204905060018216806107e957607f821691505b6020821081036107fc576107fb6107a2565b5b50919050565b60008190508160005260206000209050919050565b60006020601f8301049050919050565b600082821b905092915050565b6000600883026108647fffffffffffffffffffffffffffffffffffffffffffffffffffffffffffffffff82610827565b61086e8683610827565b95508019841693508086168417925050509392505050565b6000819050919050565b60006108ab6108a66108a184610423565b610886565b610423565b9050919050565b6000819050919050565b6108c583610890565b6108d96108d1826108b2565b848454610834565b825550505050565b600090565b6108ee6108e1565b6108f98184846108bc565b505050565b5b8181101561091d576109126000826108e6565b6001810190506108ff565b5050565b601f8211156109625761093381610802565b61093c84610817565b8101602085101561094b578190505b61095f61095785610817565b8301826108fe565b50505b505050565b600082821c905092915050565b600061098560001984600802610967565b1980831691505092915050565b600061099e8383610974565b9150826002028217905092915050565b6109b782610495565b67ffffffffffffffff8111156109d0576109cf6105b1565b5b6109da82546107d1565b6109e5828285610921565b600060209050601f831160018114610a185760008415610a06578287015190505b610a108582610992565b865550610a78565b601f198416610a2686610802565b60005b82811015610a4e57848901518255600182019150602085019450602081019050610a29565b86831015610a6b5784890151610a67601f891682610974565b8355505b6001600288020188555050505b505050505050565b7f50726564696374696f6e20646f6573206e6f7420657869737400000000000000600082015250565b6000610ab66019836104a0565b9150610ac182610a80565b602082019050919050565b60006020820190508181036000830152610ae581610aa9565b9050919050565b7f4e487b7100000000000000000000000000000000000000000000000000000000600052603260045260246000fdfea26469706673582212205b3ab9a7c1a6f3c8d06d0dba50aeccc929d219b87ca692c1c3d4088949f1796f64736f6c634300081c0033",
  "linkReferences": {},
  "deployedLinkReferences": {}
}